:100000005AC0000068C0000066C0000064C0000064
:1000100062C0000060C000005EC000005CC0000064
:100020005AC0000058C0000056C0000054C0000074
:1000300052C0000050C000004EC000004CC0000084
:100040004AC0000048C0000046C0000044C0000094
:1000500042C0000040C000003EC000003CC00000A4
:100060003AC0000038C0000036C0000034C00000B4
:1000700032C0000030C000002EC000002CC00000C4
:100080002AC0000028C0000026C00000E000D60002
:10009000EA00F400FE00080112011C0126013001F3
:1000A0003A0144014E01580162016601CA01CE01C4
:1000B000D20116025A0211241FBECFEFD0E1DEBFDB
:1000C000CDBF21E0A0E0B1E001C01D92A630B20793
:1000D000E1F734D038C294CF9093900089B98AB1B7
:1000E00088618AB986E88093950008955D9BFECF6C
:1000F0008CB908955F9BFECF8CB1089524E6AC01C6
:10010000249FC001259F900D112490937900809326
:100110007800089524E6AC01249FC001259F900D2E
:10012000112499BD88BD089524E6AC01249FC00127
:10013000259F900D11249BBD8ABD08958FEF87BB2D
:1001400088B3806E88BB8FB58A6A8FBD8EB5896192
:100150008EBD80E197E297BD86BD83E390E0BCDF72
:1001600080E090E0CBDF80E090E0D4DF80E090E0C2
:10017000DBDF05E010E0BEDFC82F87EA91E60197DC
:10018000F1F700C000008C2FB1DF87EA91E60197FC
:10019000F1F700C000008C2F90E0FC01E156F1095E
:1001A000E531F10540F7EA5BFF4FC4C184E690E01A
:1001B000BBDF84E690E0AEDF84E690E09FDFDBCF3C
:1001C00080E090E0B1DF80E090E0A4DF80E090E0AC
:1001D00095DFD1CF84E690E0A7DF80E090E09ADF62
:1001E00080E090E08BDFC7CF80E090E09DDF84E689
:1001F00090E090DF80E090E081DFBDCF80E090E094
:1002000093DF80E090E086DF84E690E077DFB3CF95
:1002100084E690E089DF84E690E07CDF80E090E097
:100220006DDFA9CF84E690E07FDF80E090E072DFB1
:1002300084E690E063DF9FCF80E090E075DF84E6A6
:1002400090E068DF84E690E059DF95CF89E190E0A7
:100250006BDF80E090E05EDF80E090E04FDF8BCFEF
:100260008BE490E061DF80E090E054DF80E090E09C
:1002700045DF81CF80E090E057DF89E190E04ADF01
:1002800080E090E03BDF77CF80E090E04DDF8BE4D3
:1002900090E040DF80E090E031DF6DCF80E090E0E3
:1002A00043DF80E090E036DF89E190E027DF63CF35
:1002B00080E090E039DF80E090E02CDF8BE490E09C
:1002C0001DDF59CF80E090E02FDF55CF0093020172
:1002D00010930301802F912FC1E0D0E0C130D105F0
:1002E00011F422DF12C0C230D10531F48091020135
:1002F000909103010FDF12C0C330D10531F480911A
:10030000020190910301FADE12C0C630D10531F42A
:10031000809102019091030107DF12C0C530D10521
:1003200031F48091020190910301F4DE0EC0C430DB
:10033000D10531F48091020190910301DFDE05C007
:10034000C630D10511F4C1E0D0E021969FE926E83E
:1003500081E0915020408040E1F700C00000809192
:10036000020190910301059690930301809302018D
:10037000853691050CF4B2CF8CB1883709F0A6CF41
:1003800080E090E0D1DE80E090E0C4DE80E090E0AC
:10039000B5DEF1CE80E090E0B1DEEDCE80E090E021
:1003A000B9DEE9CE84E690E0BFDE80E090E0B2DE28
:1003B00080E090E0A3DE9FE32DE083E091502040B9
:1003C0008040E1F700C0000080E090E0ADDE84E610
:1003D00090E0A0DE80E090E091DE9FE32DE083E0FE
:1003E000915020408040E1F700C0000080E090E0A4
:1003F0009BDE80E090E08EDE84E690E07FDE9FE38F
:100400002DE083E0915020408040E1F700C00000E3
:100410008CB1883709F0C6CF80E090E085DE80E0BF
:1004200090E078DE80E090E069DEA5CE84E690E0A2
:100430007BDE84E690E06EDE80E090E05FDE9FE3AE
:100440002DE083E0915020408040E1F700C00000A3
:1004500080E090E069DE84E690E05CDE84E690E097
:100460004DDE9FE32DE083E0915020408040E1F796
:1004700000C0000084E690E057DE80E090E04ADEB5
:1004800084E690E03BDE9FE32DE083E09150204046
:100490008040E1F700C000008CB1883709F0C6CF7A
:1004A00080E090E041DE80E090E034DE80E090E0AB
:1004B00025DE61CE109203011092020180E090E0EF
:1004C00033DE809102019091030124DE80910201CC
:1004D0009091030113DE87EA91E60197F1F700C0DE
:1004E0000000809102019091030101969093030115
:1004F00080930201853691051CF3C4E6D0E0CE015D
:1005000013DECE0107DECE01F9DD87EA91E6019721
:10051000F1F700C00000219790F78CB1883751F6B1
:1005200080E090E001DE80E090E0F4DD80E090E0AB
:10053000E5DD21CEEE0FFF1F0024001C0BBE07904F
:0A054000F691E02D0994F894FFCF26
:00000001FF
